{
  "_format": "hh-sol-artifact-1",
  "contractName": "Cryptos",
  "sourceName": "contracts/ERC20.sol",
  "abi": [
    {
      "inputs": [],
      "stateMutability": "nonpayable",
      "type": "constructor"
    },
    {
      "anonymous": false,
      "inputs": [
        {
          "indexed": true,
          "internalType": "address",
          "name": "tokenOwner",
          "type": "address"
        },
        {
          "indexed": true,
          "internalType": "address",
          "name": "spender",
          "type": "address"
        },
        {
          "indexed": false,
          "internalType": "uint256",
          "name": "tokens",
          "type": "uint256"
        }
      ],
      "name": "Approval",
      "type": "event"
    },
    {
      "anonymous": false,
      "inputs": [
        {
          "indexed": true,
          "internalType": "address",
          "name": "from",
          "type": "address"
        },
        {
          "indexed": true,
          "internalType": "address",
          "name": "to",
          "type": "address"
        },
        {
          "indexed": false,
          "internalType": "uint256",
          "name": "tokens",
          "type": "uint256"
        }
      ],
      "name": "Transfer",
      "type": "event"
    },
    {
      "inputs": [
        {
          "internalType": "address",
          "name": "tokenOwner",
          "type": "address"
        },
        {
          "internalType": "address",
          "name": "spender",
          "type": "address"
        }
      ],
      "name": "allowance",
      "outputs": [
        {
          "internalType": "uint256",
          "name": "",
          "type": "uint256"
        }
      ],
      "stateMutability": "view",
      "type": "function"
    },
    {
      "inputs": [
        {
          "internalType": "address",
          "name": "spender",
          "type": "address"
        },
        {
          "internalType": "uint256",
          "name": "tokens",
          "type": "uint256"
        }
      ],
      "name": "approve",
      "outputs": [
        {
          "internalType": "bool",
          "name": "success",
          "type": "bool"
        }
      ],
      "stateMutability": "nonpayable",
      "type": "function"
    },
    {
      "inputs": [
        {
          "internalType": "address",
          "name": "tokenOwner",
          "type": "address"
        }
      ],
      "name": "balanceOf",
      "outputs": [
        {
          "internalType": "uint256",
          "name": "balance",
          "type": "uint256"
        }
      ],
      "stateMutability": "view",
      "type": "function"
    },
    {
      "inputs": [
        {
          "internalType": "address",
          "name": "",
          "type": "address"
        }
      ],
      "name": "balances",
      "outputs": [
        {
          "internalType": "uint256",
          "name": "",
          "type": "uint256"
        }
      ],
      "stateMutability": "view",
      "type": "function"
    },
    {
      "inputs": [],
      "name": "decimals",
      "outputs": [
        {
          "internalType": "uint256",
          "name": "",
          "type": "uint256"
        }
      ],
      "stateMutability": "view",
      "type": "function"
    },
    {
      "inputs": [],
      "name": "founder",
      "outputs": [
        {
          "internalType": "address",
          "name": "",
          "type": "address"
        }
      ],
      "stateMutability": "view",
      "type": "function"
    },
    {
      "inputs": [],
      "name": "name",
      "outputs": [
        {
          "internalType": "string",
          "name": "",
          "type": "string"
        }
      ],
      "stateMutability": "view",
      "type": "function"
    },
    {
      "inputs": [],
      "name": "symbol",
      "outputs": [
        {
          "internalType": "string",
          "name": "",
          "type": "string"
        }
      ],
      "stateMutability": "view",
      "type": "function"
    },
    {
      "inputs": [],
      "name": "totalSupply",
      "outputs": [
        {
          "internalType": "uint256",
          "name": "",
          "type": "uint256"
        }
      ],
      "stateMutability": "view",
      "type": "function"
    },
    {
      "inputs": [
        {
          "internalType": "address",
          "name": "to",
          "type": "address"
        },
        {
          "internalType": "uint256",
          "name": "tokens",
          "type": "uint256"
        }
      ],
      "name": "transfer",
      "outputs": [
        {
          "internalType": "bool",
          "name": "success",
          "type": "bool"
        }
      ],
      "stateMutability": "nonpayable",
      "type": "function"
    },
    {
      "inputs": [
        {
          "internalType": "address",
          "name": "from",
          "type": "address"
        },
        {
          "internalType": "address",
          "name": "to",
          "type": "address"
        },
        {
          "internalType": "uint256",
          "name": "tokens",
          "type": "uint256"
        }
      ],
      "name": "transferFrom",
      "outputs": [
        {
          "internalType": "bool",
          "name": "success",
          "type": "bool"
        }
      ],
      "stateMutability": "nonpayable",
      "type": "function"
    }
  ],
  "bytecode": "0x60806040526040518060400160405280600781526020017f43727970746f730000000000000000000000000000000000000000000000000081525060009080519060200190620000519291906200016c565b506040518060400160405280600481526020017f4352505400000000000000000000000000000000000000000000000000000000815250600190805190602001906200009f9291906200016c565b506000600255348015620000b257600080fd5b50620f424060038190555033600460006101000a81548173ffffffffffffffffffffffffffffffffffffffff021916908373ffffffffffffffffffffffffffffffffffffffff16021790555060035460056000600460009054906101000a900473ffffffffffffffffffffffffffffffffffffffff1673ffffffffffffffffffffffffffffffffffffffff1673ffffffffffffffffffffffffffffffffffffffff1681526020019081526020016000208190555062000281565b8280546200017a906200021c565b90600052602060002090601f0160209004810192826200019e5760008555620001ea565b82601f10620001b957805160ff1916838001178555620001ea565b82800160010185558215620001ea579182015b82811115620001e9578251825591602001919060010190620001cc565b5b509050620001f99190620001fd565b5090565b5b8082111562000218576000816000905550600101620001fe565b5090565b600060028204905060018216806200023557607f821691505b602082108114156200024c576200024b62000252565b5b50919050565b7f4e487b7100000000000000000000000000000000000000000000000000000000600052602260045260246000fd5b610d8880620002916000396000f3fe608060405234801561001057600080fd5b50600436106100a95760003560e01c8063313ce56711610071578063313ce5671461017a5780634d853ee51461019857806370a08231146101b657806395d89b41146101e6578063a9059cbb14610204578063dd62ed3e14610234576100a9565b806306fdde03146100ae578063095ea7b3146100cc57806318160ddd146100fc57806323b872dd1461011a57806327e235e31461014a575b600080fd5b6100b6610264565b6040516100c39190610b25565b60405180910390f35b6100e660048036038101906100e19190610a4d565b6102f2565b6040516100f39190610b0a565b60405180910390f35b61010461043d565b6040516101119190610b47565b60405180910390f35b610134600480360381019061012f91906109fe565b610443565b6040516101419190610b0a565b60405180910390f35b610164600480360381019061015f9190610999565b610664565b6040516101719190610b47565b60405180910390f35b61018261067c565b60405161018f9190610b47565b60405180910390f35b6101a0610682565b6040516101ad9190610aef565b60405180910390f35b6101d060048036038101906101cb9190610999565b6106a8565b6040516101dd9190610b47565b60405180910390f35b6101ee6106f1565b6040516101fb9190610b25565b60405180910390f35b61021e60048036038101906102199190610a4d565b61077f565b60405161022b9190610b0a565b60405180910390f35b61024e600480360381019061024991906109c2565b6108e8565b60405161025b9190610b47565b60405180910390f35b6000805461027190610c83565b80601f016020809104026020016040519081016040528092919081815260200182805461029d90610c83565b80156102ea5780601f106102bf576101008083540402835291602001916102ea565b820191906000526020600020905b8154815290600101906020018083116102cd57829003601f168201915b505050505081565b600081600560003373ffffffffffffffffffffffffffffffffffffffff1673ffffffffffffffffffffffffffffffffffffffff16815260200190815260200160002054101561034057600080fd5b6000821161034d57600080fd5b81600660003373ffffffffffffffffffffffffffffffffffffffff1673ffffffffffffffffffffffffffffffffffffffff16815260200190815260200160002060008573ffffffffffffffffffffffffffffffffffffffff1673ffffffffffffffffffffffffffffffffffffffff168152602001908152602001600020819055508273ffffffffffffffffffffffffffffffffffffffff163373ffffffffffffffffffffffffffffffffffffffff167f8c5be1e5ebec7d5bd14f71427d1e84f3dd0314c0f7b2291e5b200ac8c7c3b9258460405161042b9190610b47565b60405180910390a36001905092915050565b60035481565b600081600660008673ffffffffffffffffffffffffffffffffffffffff1673ffffffffffffffffffffffffffffffffffffffff16815260200190815260200160002060008573ffffffffffffffffffffffffffffffffffffffff1673ffffffffffffffffffffffffffffffffffffffff1681526020019081526020016000205410156104ce57600080fd5b81600560008673ffffffffffffffffffffffffffffffffffffffff1673ffffffffffffffffffffffffffffffffffffffff16815260200190815260200160002054101561051a57600080fd5b81600560008673ffffffffffffffffffffffffffffffffffffffff1673ffffffffffffffffffffffffffffffffffffffff16815260200190815260200160002060008282546105699190610bd4565b9250508190555081600560008573ffffffffffffffffffffffffffffffffffffffff1673ffffffffffffffffffffffffffffffffffffffff16815260200190815260200160002060008282546105bf9190610b7e565b9250508190555081600660008673ffffffffffffffffffffffffffffffffffffffff1673ffffffffffffffffffffffffffffffffffffffff16815260200190815260200160002060008573ffffffffffffffffffffffffffffffffffffffff1673ffffffffffffffffffffffffffffffffffffffff16815260200190815260200160002060008282546106529190610bd4565b92505081905550600190509392505050565b60056020528060005260406000206000915090505481565b60025481565b600460009054906101000a900473ffffffffffffffffffffffffffffffffffffffff1681565b6000600560008373ffffffffffffffffffffffffffffffffffffffff1673ffffffffffffffffffffffffffffffffffffffff168152602001908152602001600020549050919050565b600180546106fe90610c83565b80601f016020809104026020016040519081016040528092919081815260200182805461072a90610c83565b80156107775780601f1061074c57610100808354040283529160200191610777565b820191906000526020600020905b81548152906001019060200180831161075a57829003601f168201915b505050505081565b600081600560003373ffffffffffffffffffffffffffffffffffffffff1673ffffffffffffffffffffffffffffffffffffffff1681526020019081526020016000205410156107cd57600080fd5b81600560008573ffffffffffffffffffffffffffffffffffffffff1673ffffffffffffffffffffffffffffffffffffffff168152602001908152602001600020600082825461081c9190610b7e565b9250508190555081600560003373ffffffffffffffffffffffffffffffffffffffff1673ffffffffffffffffffffffffffffffffffffffff16815260200190815260200160002060008282546108729190610bd4565b925050819055508273ffffffffffffffffffffffffffffffffffffffff163373ffffffffffffffffffffffffffffffffffffffff167fddf252ad1be2c89b69c2b068fc378daa952ba7f163c4a11628f55a4df523b3ef846040516108d69190610b47565b60405180910390a36001905092915050565b6000600660008473ffffffffffffffffffffffffffffffffffffffff1673ffffffffffffffffffffffffffffffffffffffff16815260200190815260200160002060008373ffffffffffffffffffffffffffffffffffffffff1673ffffffffffffffffffffffffffffffffffffffff16815260200190815260200160002054905092915050565b60008135905061097e81610d24565b92915050565b60008135905061099381610d3b565b92915050565b6000602082840312156109ab57600080fd5b60006109b98482850161096f565b91505092915050565b600080604083850312156109d557600080fd5b60006109e38582860161096f565b92505060206109f48582860161096f565b9150509250929050565b600080600060608486031215610a1357600080fd5b6000610a218682870161096f565b9350506020610a328682870161096f565b9250506040610a4386828701610984565b9150509250925092565b60008060408385031215610a6057600080fd5b6000610a6e8582860161096f565b9250506020610a7f85828601610984565b9150509250929050565b610a9281610c08565b82525050565b610aa181610c1a565b82525050565b6000610ab282610b62565b610abc8185610b6d565b9350610acc818560208601610c50565b610ad581610d13565b840191505092915050565b610ae981610c46565b82525050565b6000602082019050610b046000830184610a89565b92915050565b6000602082019050610b1f6000830184610a98565b92915050565b60006020820190508181036000830152610b3f8184610aa7565b905092915050565b6000602082019050610b5c6000830184610ae0565b92915050565b600081519050919050565b600082825260208201905092915050565b6000610b8982610c46565b9150610b9483610c46565b9250827fffffffffffffffffffffffffffffffffffffffffffffffffffffffffffffffff03821115610bc957610bc8610cb5565b5b828201905092915050565b6000610bdf82610c46565b9150610bea83610c46565b925082821015610bfd57610bfc610cb5565b5b828203905092915050565b6000610c1382610c26565b9050919050565b60008115159050919050565b600073ffffffffffffffffffffffffffffffffffffffff82169050919050565b6000819050919050565b60005b83811015610c6e578082015181840152602081019050610c53565b83811115610c7d576000848401525b50505050565b60006002820490506001821680610c9b57607f821691505b60208210811415610caf57610cae610ce4565b5b50919050565b7f4e487b7100000000000000000000000000000000000000000000000000000000600052601160045260246000fd5b7f4e487b7100000000000000000000000000000000000000000000000000000000600052602260045260246000fd5b6000601f19601f8301169050919050565b610d2d81610c08565b8114610d3857600080fd5b50565b610d4481610c46565b8114610d4f57600080fd5b5056fea264697066735822122045c0c72c0d1a359aecb07f175cf6f4e244d76fa235baade4c029eefb8147b66064736f6c63430008010033",
  "linkReferences": {},
  "deployedLinkReferences": {}
}